{
  "abi": [
    {
      "inputs": [
        {
          "internalType": "bytes32",
          "name": "slot_",
          "type": "bytes32"
        },
        {
          "internalType": "enum LinkedList.Variables",
          "name": "var_",
          "type": "uint8"
        }
      ],
      "name": "getBytes32",
      "outputs": [
        {
          "internalType": "bytes32",
          "name": "value_",
          "type": "bytes32"
        }
      ],
      "stateMutability": "view",
      "type": "function"
    },
    {
      "inputs": [],
      "name": "getHead",
      "outputs": [
        {
          "internalType": "bytes32",
          "name": "",
          "type": "bytes32"
        }
      ],
      "stateMutability": "view",
      "type": "function"
    },
    {
      "inputs": [],
      "name": "getTail",
      "outputs": [
        {
          "internalType": "bytes32",
          "name": "",
          "type": "bytes32"
        }
      ],
      "stateMutability": "view",
      "type": "function"
    },
    {
      "inputs": [
        {
          "internalType": "bytes32",
          "name": "slot_",
          "type": "bytes32"
        },
        {
          "internalType": "enum LinkedList.Variables",
          "name": "var_",
          "type": "uint8"
        }
      ],
      "name": "getUint256",
      "outputs": [
        {
          "internalType": "uint256",
          "name": "value_",
          "type": "uint256"
        }
      ],
      "stateMutability": "view",
      "type": "function"
    },
    {
      "inputs": [
        {
          "components": [
            {
              "internalType": "uint256",
              "name": "value",
              "type": "uint256"
            }
          ],
          "internalType": "struct LinkedList.Node",
          "name": "node_",
          "type": "tuple"
        },
        {
          "internalType": "bytes32",
          "name": "previousNodeSlot_",
          "type": "bytes32"
        },
        {
          "internalType": "bytes32",
          "name": "nextNodeSlot_",
          "type": "bytes32"
        }
      ],
      "name": "insert",
      "outputs": [
        {
          "internalType": "bytes32",
          "name": "slot_",
          "type": "bytes32"
        }
      ],
      "stateMutability": "nonpayable",
      "type": "function"
    },
    {
      "inputs": [
        {
          "internalType": "bytes32",
          "name": "previousNodeSlot_",
          "type": "bytes32"
        },
        {
          "internalType": "bytes32",
          "name": "nextNodeSlot_",
          "type": "bytes32"
        }
      ],
      "name": "remove",
      "outputs": [],
      "stateMutability": "nonpayable",
      "type": "function"
    }
  ],
  "bytecode": {
    "object": "0x608060405234801561001057600080fd5b50610292806100206000396000f3fe608060405234801561001057600080fd5b50600436106100625760003560e01c80635771709a1461006757806359b165e11461008c57806395e34c2c1461008c578063b10e41721461009f578063dc281aff146100b4578063f8cdfbf8146100bc575b600080fd5b61007a61007536600461016d565b6100c4565b60405190815260200160405180910390f35b61007a61009a3660046101df565b015490565b6100b26100ad366004610213565b610146565b005b60005461007a565b60015461007a565b60006002600081546100d590610235565b91829055506040805160208101929092520160408051601f198184030181529190528051602090910120845181559050811561011c5761011781600184910155565b610122565b60018190555b82156101395761013483600183910155565b61013f565b60008190555b9392505050565b806101515760018290555b81156101675761016382600183910155565b5050565b60005550565b6000806000838503606081121561018357600080fd5b602081121561019157600080fd5b506040516020810181811067ffffffffffffffff821117156101c357634e487b7160e01b600052604160045260246000fd5b6040908152853582529096602086013596509401359392505050565b600080604083850312156101f257600080fd5b8235915060208301356002811061020857600080fd5b809150509250929050565b6000806040838503121561022657600080fd5b50508035926020909101359150565b60006001820161025557634e487b7160e01b600052601160045260246000fd5b506001019056fea26469706673582212205904f5646aaed57dceebcf400ea328b75139728a470778ef220f3b3da434a9cd64736f6c63430008110033",
    "linkReferences": {}
  },
  "methodIdentifiers": {
    "getBytes32(bytes32,uint8)": "59b165e1",
    "getHead()": "dc281aff",
    "getTail()": "f8cdfbf8",
    "getUint256(bytes32,uint8)": "95e34c2c",
    "insert((uint256),bytes32,bytes32)": "5771709a",
    "remove(bytes32,bytes32)": "b10e4172"
  },
  "id": 16
}