{
  "abi": [
    {
      "inputs": [
        {
          "internalType": "bytes32",
          "name": "slot_",
          "type": "bytes32"
        },
        {
          "internalType": "enum LinkedList.Variables",
          "name": "var_",
          "type": "uint8"
        }
      ],
      "name": "getBytes32",
      "outputs": [
        {
          "internalType": "bytes32",
          "name": "value_",
          "type": "bytes32"
        }
      ],
      "stateMutability": "view",
      "type": "function"
    },
    {
      "inputs": [],
      "name": "getHead",
      "outputs": [
        {
          "internalType": "bytes32",
          "name": "",
          "type": "bytes32"
        }
      ],
      "stateMutability": "view",
      "type": "function"
    },
    {
      "inputs": [
        {
          "internalType": "bytes32",
          "name": "slot_",
          "type": "bytes32"
        },
        {
          "internalType": "enum LinkedList.Variables",
          "name": "var_",
          "type": "uint8"
        }
      ],
      "name": "getUint256",
      "outputs": [
        {
          "internalType": "uint256",
          "name": "value_",
          "type": "uint256"
        }
      ],
      "stateMutability": "view",
      "type": "function"
    },
    {
      "inputs": [
        {
          "internalType": "uint256",
          "name": "value_",
          "type": "uint256"
        }
      ],
      "name": "insert",
      "outputs": [],
      "stateMutability": "nonpayable",
      "type": "function"
    }
  ],
  "bytecode": {
    "object": "0x608060405234801561001057600080fd5b50610130806100206000396000f3fe6080604052348015600f57600080fd5b506004361060465760003560e01c806359b165e114604b57806390b5561d14606d57806395e34c2c14604b578063dc281aff1460a9575b600080fd5b605b605636600460b0565b015490565b60405190815260200160405180910390f35b60a7607836600460e2565b600080546040805160208082018490528251808303820181529183019092528051910120928355600183015555565b005b600054605b565b6000806040838503121560c257600080fd5b8235915060208301356002811060d757600080fd5b809150509250929050565b60006020828403121560f357600080fd5b503591905056fea2646970667358221220e2fae682e696a0b53f5db76d94f42c92c71747d11087d282e0cdc269a391aefa64736f6c63430008110033",
    "linkReferences": {}
  },
  "methodIdentifiers": {
    "getBytes32(bytes32,uint8)": "59b165e1",
    "getHead()": "dc281aff",
    "getUint256(bytes32,uint8)": "95e34c2c",
    "insert(uint256)": "90b5561d"
  },
  "id": 14
}