{
  "abi": [
    {
      "inputs": [
        {
          "internalType": "bytes32",
          "name": "slot_",
          "type": "bytes32"
        },
        {
          "internalType": "enum LinkedList.Variables",
          "name": "var_",
          "type": "uint8"
        }
      ],
      "name": "getBytes32",
      "outputs": [
        {
          "internalType": "bytes32",
          "name": "value_",
          "type": "bytes32"
        }
      ],
      "stateMutability": "view",
      "type": "function"
    },
    {
      "inputs": [],
      "name": "getHead",
      "outputs": [
        {
          "internalType": "bytes32",
          "name": "",
          "type": "bytes32"
        }
      ],
      "stateMutability": "view",
      "type": "function"
    },
    {
      "inputs": [],
      "name": "getTail",
      "outputs": [
        {
          "internalType": "bytes32",
          "name": "",
          "type": "bytes32"
        }
      ],
      "stateMutability": "view",
      "type": "function"
    },
    {
      "inputs": [
        {
          "internalType": "bytes32",
          "name": "slot_",
          "type": "bytes32"
        },
        {
          "internalType": "enum LinkedList.Variables",
          "name": "var_",
          "type": "uint8"
        }
      ],
      "name": "getUint256",
      "outputs": [
        {
          "internalType": "uint256",
          "name": "value_",
          "type": "uint256"
        }
      ],
      "stateMutability": "view",
      "type": "function"
    },
    {
      "inputs": [
        {
          "internalType": "bytes32",
          "name": "previousNodeSlot_",
          "type": "bytes32"
        },
        {
          "components": [
            {
              "internalType": "uint256",
              "name": "value",
              "type": "uint256"
            }
          ],
          "internalType": "struct LinkedList.Node",
          "name": "node_",
          "type": "tuple"
        },
        {
          "internalType": "bytes32",
          "name": "nextNodeSlot_",
          "type": "bytes32"
        }
      ],
      "name": "insert",
      "outputs": [
        {
          "internalType": "bytes32",
          "name": "slot_",
          "type": "bytes32"
        }
      ],
      "stateMutability": "nonpayable",
      "type": "function"
    },
    {
      "inputs": [
        {
          "internalType": "bytes32",
          "name": "previousNodeSlot_",
          "type": "bytes32"
        },
        {
          "internalType": "bytes32",
          "name": "nextNodeSlot_",
          "type": "bytes32"
        }
      ],
      "name": "remove",
      "outputs": [],
      "stateMutability": "nonpayable",
      "type": "function"
    }
  ],
  "bytecode": {
    "object": "0x608060405234801561001057600080fd5b5061029a806100206000396000f3fe608060405234801561001057600080fd5b50600436106100625760003560e01c806359b165e1146100675780638a1772db1461008c57806395e34c2c14610067578063b10e41721461009f578063dc281aff146100b4578063f8cdfbf8146100bc575b600080fd5b61007a61007536600461016d565b015490565b60405190815260200160405180910390f35b61007a61009a3660046101a1565b6100c4565b6100b26100ad36600461021b565b610146565b005b60005461007a565b60015461007a565b60006002600081546100d59061023d565b91829055506040805160208101929092520160408051601f198184030181529190528051602090910120835181559050811561011c5761011781600184910155565b610122565b60018190555b83156101395761013484600183910155565b61013f565b60008190555b9392505050565b806101515760018290555b81156101675761016382600183910155565b5050565b60005550565b6000806040838503121561018057600080fd5b8235915060208301356002811061019657600080fd5b809150509250929050565b600080600083850360608112156101b757600080fd5b843593506020601f19820112156101cd57600080fd5b506040516020810181811067ffffffffffffffff821117156101ff57634e487b7160e01b600052604160045260246000fd5b6040908152602086013582529396909550939092013592915050565b6000806040838503121561022e57600080fd5b50508035926020909101359150565b60006001820161025d57634e487b7160e01b600052601160045260246000fd5b506001019056fea264697066735822122080d262853346b793b1fa929171cffc59a83937a82f2e6c51c48efa8529ae127d64736f6c63430008110033",
    "linkReferences": {}
  },
  "methodIdentifiers": {
    "getBytes32(bytes32,uint8)": "59b165e1",
    "getHead()": "dc281aff",
    "getTail()": "f8cdfbf8",
    "getUint256(bytes32,uint8)": "95e34c2c",
    "insert(bytes32,(uint256),bytes32)": "8a1772db",
    "remove(bytes32,bytes32)": "b10e4172"
  },
  "id": 14
}